S01400007364436172644472697665722E7372656353
S11300000C9472000C9494000C9494000C9494003E
S11300100C9494000C9494000C9494000C9494000C
S11300200C9494000C9494000C9494000C949400FC
S11300300C9494000C9494000C9494000C949400EC
S11300400C9494000C9494000C9494000C949400DC
S11300500C9494000C9494000C9494000C949400CC
S11300600C9494000C9494000C9494000C949400BC
S11300700C9494000C9494000C9494000C949400AC
S11300800C9494000C9494000C9494000C9494009C
S11300900C9494000C9494000C9494000C9494008C
S11300A00C9494000C9494000C9494000C9494007C
S11300B00C9494000C9494000C9494000C9494006C
S11300C00C9494000C9494000C9494000C9494005C
S11300D00C9494000C9494000C9494000C9494004C
S11300E00C94940011241FBECFEFD1E2DEBFCDBF2C
S11300F000E00CBF12E0A0E0B2E0E2EFF8E000E0C4
S11301000BBF02C007900D92A030B107D9F71BBEF8
S113011012E0A0E0B2E001C01D92A030B107E1F707
S11301200E9496000C9477040C940000EF92FF92C6
S11301300F931F93CF93DF93CDB7DEB7C350D24055
S11301400FB6F894DEBF0FBECDBF60E875E280E065
S113015090E048E020E00E947E03CE01019660EA30
S11301607FE00E94F1008FE39CE90197F1F700C062
S11301700000CE0101960E9446010E94DB03CE01DD
S1130180019640E052E060E070E09E012C5F3F4F3A
S11301900E94D7028BEB0E94DB038BEB0E94DB03F4
S11301A0EE24FF246894E2F8EC0EFD1E8E010C5F31
S11301B01D4FF70181917F010E94DB03E016F106D8
S11301C0C1F780E090E0CD5FDD4F0FB6F894DEBF5D
S11301D00FBECDBFDF91CF911F910F91FF90EF9094
S11301E008950F931F93CF93DF93EC018B016DE779
S11301F070E00E946A031A830983DF91CF911F91F3
S11302000F910895EF92FF920F931F93CF93DF9373
S113021000D00F92CDB7DEB7182FE92EF62E298322
S11302203A834B835C836FEF0E9471036F2D60648C
S1130230812F9E2D0E947103812F9E2D69810E9422
S11302407103812F9E2D6A810E947103812F9E2D3F
S11302506C810E947103812F9E2D6D810E94710318
S1130260812F9E2D602F0E9471030F900F900F908D
S11302700F90DF91CF911F910F91FF90EF90089510
S11302800E94770308950E9471030895AF92BF926C
S1130290CF92DF92EF92FF920F931F93CF93DF934E
S11302A000D00F920F92CDB7DEB7B82EA92E83EFF0
S11302B091E00197F1F700C0000083B1816085B936
S11302C0CB2CDA2C8B2D9A2D6DE770E00E94420323
S11302D0E3EFF1E03197F1F700C000008B2D9A2D88
S11302E06FEF0E9471038B2D9A2D6FEF0E947103A3
S11302F08B2D9A2D6FEF0E9471038B2D9A2D6FEF2A
S11303000E9471038B2D9A2D6FEF0E9471038B2D28
S11303109A2D6FEF0E9471038B2D9A2D6FEF0E941F
S113032071038B2D9A2D6FEF0E9471038B2D9A2DE3
S11303306FEF0E9471038B2D9A2D6FEF0E94710352
S113034083B18E7F85B98C2D9D2D6FEF0E94710333
S11303508C2D9D2D60E40E9471038C2D9D2D60E0F9
S11303600E9471038C2D9D2D60E00E9471038C2DE1
S11303709D2D60E00E9471038C2D9D2D60E00E94F4
S113038071038C2D9D2D65E90E9471038C2D9D2D8B
S11303900E9477038C2D9D2D0E9477038F3F81F25D
S11303A0813009F0E9C08B2D9A2D6FEF0E94710303
S11303B08B2D9A2D68E40E9471038B2D9A2D60E099
S11303C00E9471038B2D9A2D60E00E9471038B2D86
S11303D09A2D61E00E9471038B2D9A2D6AEA0E9486
S11303E071038B2D9A2D67E80E9471038B2D9A2D32
S11303F00E9477038E010F5F1F4F0F2EF6E0EF2E42
S1130400FF24F02DEC0EFD1E8C2D9D2D0E947703F4
S1130410F80181938F01EE15FF05B1F789818130D1
S113042009F0ACC08A81882309F0AAC08B81882393
S113043009F0A8C08C81813009F0A6C08D818A3A68
S113044009F0A4C08C2D9D2D6FEF0E9471038C2D9B
S11304509D2D67E70E9471038C2D9D2D60E00E9405
S113046071038C2D9D2D60E00E9471038C2D9D2DB8
S113047060E00E9471038C2D9D2D60E00E94710349
S11304808C2D9D2D6FEF0E9471038C2D9D2D0E944C
S113049077038C2D9D2D0E9477038C2D9D2D6FEF5E
S11304A00E9471038C2D9D2D69E60E9471038C2D91
S11304B09D2D60E40E9471038C2D9D2D60E00E94AF
S11304C071038C2D9D2D60E00E9471038C2D9D2D58
S11304D060E00E9471038C2D9D2D6FEF0E947103CB
S11304E08C2D9D2D0E9477038C2D9D2D0E947703CA
S11304F0882309F0A7CF8B2D9A2D6FEF0E947103EB
S11305008B2D9A2D6AE70E9471038B2D9A2D60E042
S11305100E9471038B2D9A2D60E00E9471038B2D34
S11305209A2D60E00E9471038B2D9A2D60E00E9449
S113053071038B2D9A2D6FEF0E9471038B2D9A2DD1
S11305400E9477038B2D9A2D0E9477038B2D9A2D71
S11305500E947703082F8B2D9A2D0E9477038B2DF1
S11305609A2D0E9477038B2D9A2D0E94770381E0A8
S113057006FD0DC080E00BC080E009C080E007C02C
S113058080E005C080E003C080E001C080E00F90FF
S11305900F900F900F900F90DF91CF911F910F91BB
S11305A0FF90EF90DF90CF90BF90AF900895AF92FF
S11305B0BF92CF92DF92EF92FF920F931F93CF934C
S11305C0DF9300D00F92CDB7DEB7B82EA92E4983A2
S11305D05A836B837C83022F132FC82ED92E6FEF7F
S11305E00E9471038B2D9A2D61E50E9471038B2D5E
S11305F09A2D69810E9471038B2D9A2D6A810E9424
S113060071038B2D9A2D6B810E9471038B2D9A2D72
S11306106C810E9471038B2D9A2D6FEF0E947103E0
S11306208B2D9A2D0E9477038C2D9D2D0E9477038C
S11306308E3FD1F7E02EF12E00E010E08C2D9D2DA1
S11306400E947703F70181937F010F5F1F4FF2E050
S113065000301F0799F78B2D9A2D0E9477038B2D5D
S11306609A2D0E9477030F900F900F900F90DF91B7
S1130670CF911F910F91FF90EF90DF90CF90BF909B
S1130680AF9008956A3F7105C1F06B3F710524F482
S11306906D377105D9F416C083E0683E780741F0E0
S11306A08FE0603A780791F48CB58C7F8CBD089507
S11306B08CB58C7F81608CBD08958CB58C7F8260F5
S11306C08CBD08958CB583608CBD08958CB58C7FEA
S11306D08CBD089527E024B920E52CBD0E94420377
S11306E008956EBD0DB407FEFDCF8EB508958FEF4E
S11306F08EBD0DB407FEFDCF8EB508950F931F93E5
S1130700DC01CB01522F8C019D010E56104020407C
S11307103040033961EC160761E0260760E03607D4
S1130720D8F54530C8F14930B8F520E22093C0002F
S113073028E12093C1004550440F4093C200553432
S113074031F4E2ECF0E020812062208307C05F34C2
S113075029F4E2ECF0E0208120632083880F991FC4
S1130760AA1FBB1F880F991FAA1FBB1F9C01AD01A5
S1130770220F331F441F551F220F331F441F551FC1
S113078060E074E284EF90E00E9410042150304055
S11307902093C4003093C5001F910F910895809158
S11307A0C00080780895E0ECF0E080818823ECF7C5
S11307B08091C6000895E0ECF0E0908195FFFDCFB4
S11307C08093C6000895CF93DF93EC01888188233A
S11307D031F021960E94DB0389918823D9F7DF91B8
S11307E0CF910895CF93DF93CDB7DEB727970FB698
S11307F0F894DEBF0FBECDBFBE016F5F7F4F4AE0EE
S113080050E00E943204CE0101960E94E303279631
S11308100FB6F894DEBF0FBECDBFDF91CF91089520
S1130820A1E21A2EAA1BBB1BFD010DC0AA1FBB1FF0
S1130830EE1FFF1FA217B307E407F50720F0A21B62
S1130840B30BE40BF50B661F771F881F991F1A94CF
S113085069F760957095809590959B01AC01BD01F9
S1130860CF010895FB019F01E8944230C4F0453262
S1130870B4F44A3029F497FB1EF4909581959F4F68
S1130880642F77270E946304805D8A330CF0895DAE
S11308908193CB010097A1F716F45DE25193108286
S11308A0C9010C945304DC01FC01672F7191772377
S11308B0E1F7329704C07C916D9370836291AE1717
S11308C0BF07C8F30895AA1BBB1B51E107C0AA1FA9
S11308D0BB1FA617B70710F0A61BB70B881F991FDD
S11308E05A95A9F780959095BC01CD010895F89487
S10508F0FFCF34
S9030000FC
