:100000000C9472000C9494000C9494000C94940042
:100010000C9494000C9494000C9494000C94940010
:100020000C9494000C9494000C9494000C94940000
:100030000C9494000C9494000C9494000C949400F0
:100040000C9494000C9494000C9494000C949400E0
:100050000C9494000C9494000C9494000C949400D0
:100060000C9494000C9494000C9494000C949400C0
:100070000C9494000C9494000C9494000C949400B0
:100080000C9494000C9494000C9494000C949400A0
:100090000C9494000C9494000C9494000C94940090
:1000A0000C9494000C9494000C9494000C94940080
:1000B0000C9494000C9494000C9494000C94940070
:1000C0000C9494000C9494000C9494000C94940060
:1000D0000C9494000C9494000C9494000C94940050
:1000E0000C94940011241FBECFEFD1E2DEBFCDBF30
:1000F00000E00CBF12E0A0E0B2E0E4EBF7E000E0CB
:100100000BBF02C007900D92A030B107D9F71BBEFC
:1001100012E0A0E0B2E001C01D92A030B107E1F70B
:100120000E9496000C94D8030C940000CF93DF93A8
:1001300000D0CDB7DEB760E875E280E090E048E03F
:1001400020E00E94DF02CE01019660EA7FE00E947B
:10015000BD008FE39CE90197F1F700C00000CE01DC
:1001600001960E9412010E943C0380E090E00F90F3
:100170000F900F90DF91CF9108950F931F93CF931E
:10018000DF93EC018B016DE770E00E94CB021A83D4
:100190000983DF91CF911F910F910895EF92FF9204
:1001A0000F931F93CF93DF9300D00F92CDB7DEB79D
:1001B000182FE92EF62E29833A834B835C836FEF49
:1001C0000E94D2026F2D6064812F9E2D0E94D20268
:1001D000812F9E2D69810E94D202812F9E2D6A81DE
:1001E0000E94D202812F9E2D6C810E94D202812F0B
:1001F0009E2D6D810E94D202812F9E2D602F0E9424
:10020000D2020F900F900F900F90DF91CF911F911E
:100210000F91FF90EF9008950E94D80208950E94D8
:10022000D2020895AF92BF92CF92DF92EF92FF92E7
:100230000F931F93CF93DF9300D00F920F92CDB700
:10024000DEB7B82EA92E83EF91E00197F1F700C039
:10025000000083B1816085B9CB2CDA2C8B2D9A2DCF
:100260006DE770E00E94A302E3EFF1E03197F1F750
:1002700000C000008B2D9A2D6FEF0E94D2028B2DB3
:100280009A2D6FEF0E94D2028B2D9A2D6FEF0E9454
:10029000D2028B2D9A2D6FEF0E94D2028B2D9A2DB8
:1002A0006FEF0E94D2028B2D9A2D6FEF0E94D20227
:1002B0008B2D9A2D6FEF0E94D2028B2D9A2D6FEF0E
:1002C0000E94D2028B2D9A2D6FEF0E94D2028B2DAD
:1002D0009A2D6FEF0E94D20283B18E7F85B98C2D4B
:1002E0009D2D6FEF0E94D2028C2D9D2D60E40E9407
:1002F000D2028C2D9D2D60E00E94D2028C2D9D2D6E
:1003000060E00E94D2028C2D9D2D60E00E94D202FE
:100310008C2D9D2D60E00E94D2028C2D9D2D65E9D3
:100320000E94D2028C2D9D2D0E94D8028C2D9D2DD5
:100330000E94D8028F3F81F2813009F0E9C08B2DF5
:100340009A2D6FEF0E94D2028B2D9A2D68E40E94A5
:10035000D2028B2D9A2D60E00E94D2028B2D9A2D15
:1003600060E00E94D2028B2D9A2D61E00E94D202A1
:100370008B2D9A2D6AEA0E94D2028B2D9A2D67E866
:100380000E94D2028B2D9A2D0E94D8028E010F5FFF
:100390001F4F0F2EF6E0EF2EFF24F02DEC0EFD1E6A
:1003A0008C2D9D2D0E94D802F80181938F01EE15AE
:1003B000FF05B1F78981813009F0ACC08A818823BB
:1003C00009F0AAC08B81882309F0A8C08C818130F4
:1003D00009F0A6C08D818A3A09F0A4C08C2D9D2D0C
:1003E0006FEF0E94D2028C2D9D2D67E70E94D202F2
:1003F0008C2D9D2D60E00E94D2028C2D9D2D60E001
:100400000E94D2028C2D9D2D60E00E94D2028C2D84
:100410009D2D60E00E94D2028C2D9D2D6FEF0E94D9
:10042000D2028C2D9D2D0E94D8028C2D9D2D0E94D4
:10043000D8028C2D9D2D6FEF0E94D2028C2D9D2D08
:1004400069E60E94D2028C2D9D2D60E40E94D202AA
:100450008C2D9D2D60E00E94D2028C2D9D2D60E0A0
:100460000E94D2028C2D9D2D60E00E94D2028C2D24
:100470009D2D6FEF0E94D2028C2D9D2D0E94D802DF
:100480008C2D9D2D0E94D802882309F0A7CF8B2D9B
:100490009A2D6FEF0E94D2028B2D9A2D6AE70E944F
:1004A000D2028B2D9A2D60E00E94D2028B2D9A2DC4
:1004B00060E00E94D2028B2D9A2D60E00E94D20251
:1004C0008B2D9A2D60E00E94D2028B2D9A2D6FEF1A
:1004D0000E94D2028B2D9A2D0E94D8028B2D9A2D2C
:1004E0000E94D8028B2D9A2D0E94D802082F8B2DA6
:1004F0009A2D0E94D8028B2D9A2D0E94D8028B2D06
:100500009A2D0E94D80281E006FD0DC080E00BC04C
:1005100080E009C080E007C080E005C080E003C043
:1005200080E001C080E00F900F900F900F900F902F
:10053000DF91CF911F910F91FF90EF90DF90CF90BF
:10054000BF90AF9008956A3F7105C1F06B3F710590
:1005500024F46D377105D9F416C083E0683E78073E
:1005600041F08FE0603A780791F48CB58C7F8CBDB8
:1005700008958CB58C7F81608CBD08958CB58C7F7F
:1005800082608CBD08958CB583608CBD08958CB558
:100590008C7F8CBD089527E024B920E52CBD0E94F6
:1005A000A30208956EBD0DB407FEFDCF8EB508956C
:1005B0008FEF8EBD0DB407FEFDCF8EB508950F935E
:1005C0001F93DC01CB01522F8C019D010E56104070
:1005D00020403040033961EC160761E0260760E0F7
:1005E0003607D8F54530C8F14930B8F520E22093F8
:1005F000C00028E12093C1004550440F4093C20041
:10060000553431F4E2ECF0E020812062208307C011
:100610005F3429F4E2ECF0E0208120632083880F2E
:10062000991FAA1FBB1F880F991FAA1FBB1F9C01E0
:10063000AD01220F331F441F551F220F331F441FCC
:10064000551F60E074E284EF90E00E947103215036
:1006500030402093C4003093C5001F910F9108953E
:100660008091C00080780895E0ECF0E080818823DC
:10067000ECF78091C6000895E0ECF0E0908195FFE2
:10068000FDCF8093C6000895CF93DF93EC0188815E
:10069000882331F021960E943C0389918823D9F761
:1006A000DF91CF910895CF93DF93CDB7DEB7279732
:1006B0000FB6F894DEBF0FBECDBFBE016F5F7F4F98
:1006C0004AE050E00E949303CE0101960E94440349
:1006D00027960FB6F894DEBF0FBECDBFDF91CF9146
:1006E0000895A1E21A2EAA1BBB1BFD010DC0AA1F73
:1006F000BB1FEE1FFF1FA217B307E407F50720F08B
:10070000A21BB30BE40BF50B661F771F881F991F05
:100710001A9469F760957095809590959B01AC014E
:10072000BD01CF010895FB019F01E8944230C4F060
:100730004532B4F44A3029F497FB1EF49095819524
:100740009F4F642F77270E94C403805D8A330CF08B
:10075000895D8193CB010097A1F716F45DE2519377
:100760001082C9010C94B403DC01FC01672F719164
:100770007723E1F7329704C07C916D937083629187
:10078000AE17BF07C8F30895AA1BBB1B51E107C0F2
:10079000AA1FBB1FA617B70710F0A61BB70B881F11
:1007A000991F5A95A9F780959095BC01CD010895A0
:0407B000F894FFCFEB
:00000001FF
