S01400007364436172644472697665722E7372656353
S11300000C9472000C9494000C9494000C9494003E
S11300100C9494000C9494000C9494000C9494000C
S11300200C9494000C9494000C9494000C949400FC
S11300300C9494000C9494000C9494000C949400EC
S11300400C9494000C9494000C9494000C949400DC
S11300500C9494000C9494000C9494000C949400CC
S11300600C9494000C9494000C9494000C949400BC
S11300700C9494000C9494000C9494000C949400AC
S11300800C9494000C9494000C9494000C9494009C
S11300900C9494000C9494000C9494000C9494008C
S11300A00C9494000C9494000C9494000C9494007C
S11300B00C9494000C9494000C9494000C9494006C
S11300C00C9494000C9494000C9494000C9494005C
S11300D00C9494000C9494000C9494000C9494004C
S11300E00C94940011241FBECFEFD1E2DEBFCDBF2C
S11300F000E00CBF12E0A0E0B2E0E0E4F7E000E0D2
S11301000BBF02C007900D92A030B107D9F71BBEF8
S113011012E0A0E0B2E001C01D92A030B107E1F707
S11301200E9496000C949E030C940000CF92DF92E0
S1130130EF92FF920F931F93CF93DF9300D000D0E1
S1130140CDB7DEB760E875E280E090E048E020E0FB
S11301500E94A502CE0101966DE770E00E94910213
S11301608FE39FE10197F1F700C0000083B1816044
S113017085B9CE0101966DE770E00E946902EFE354
S1130180FFE13197F1F700C00000CE0101966FEF57
S11301900E949802CE0101966FEF0E949802CE0150
S11301A001966FEF0E949802CE0101966FEF0E94B4
S11301B09802CE0101966FEF0E949802CE0101963B
S11301C06FEF0E949802CE0101966FEF0E94980291
S11301D0CE0101966FEF0E949802CE0101966FEF57
S11301E00E949802CE0101966FEF0E94980283B19B
S11301F08E7F85B9CE0101966FEF0E949802CE01E1
S1130200019660E40E949802CE01019660E00E948B
S11302109802CE01019660E00E949802CE010196F8
S113022060E00E949802CE01019660E00E9498026C
S1130230CE01019665E90E949802CE0101960E94C2
S11302409E02CE0101960E949E028F3F81F2813070
S113025021F5CE0101966FEF0E949802CE0101961E
S113026068E40E949802CE01019660E00E94980220
S1130270CE01019660E00E949802CE01019661E0F1
S11302800E949802CE0101966AEA0E949802CE0169
S1130290019667E80E94980203C08BEB0E94020358
S11302A0CE0101960E949E02EE24FF246894E1F898
S11302B0EC0EFD1E8E01095F1F4F6701CE010196F2
S11302C00E949E02F60181936F01E017F107B1F7D6
S11302D0F70181917F010E940203E016F106C1F744
S11302E08A81813009F070C08B81882309F06CC049
S11302F08C81882309F068C08D81813009F064C045
S11303008E818A3A09F060C0CE0101966FEF0E9497
S11303109802CE01019667E70E949802CE010196E9
S113032060E00E949802CE01019660E00E9498026B
S1130330CE01019660E00E949802CE01019660E031
S11303400E949802CE0101966FEF0E949802CE019E
S113035001960E949E02CE0101960E949E020E9476
S11303600203CE0101966FEF0E949802CE0101961E
S113037069E60E949802CE01019660E40E94980208
S1130380CE01019660E00E949802CE01019660E0E1
S11303900E949802CE01019660E00E949802CE016C
S11303A001966FEF0E949802CE0101960E949E0270
S11303B00E940203CE0101960E949E02082F0E9411
S11303C00203002309F0A0CF80E090E026960FB648
S11303D0F894DEBF0FBECDBFDF91CF911F910F9177
S11303E0FF90EF90DF90CF9008950F931F93CF93DA
S11303F0DF93EC018B016DE770E00E949102209A7B
S11304001A830983DF91CF911F910F910895FF9271
S11304100F931F93CF93DF9300D00F92CDB7DEB726
S1130420F82E192F29833A834B835C8360640E94DE
S113043098028F2D912F69810E9498028F2D912F00
S11304406A810E9498028F2D912F6C810E949802DC
S11304508F2D912F6D810E9498028F2D912F602FE7
S11304600E9498020F900F900F900F90DF91CF9100
S11304701F910F91FF9008950F931F93CF93DF93D4
S11304808C01CBE0D0E0C8016FEF0E949802219765
S1130490D1F7DF91CF911F910F91089561157105E7
S11304A021F483B18E7F85B9089583B1816085B9C4
S11304B008950F9360E020E030E0A90105E90E946F
S11304C007020F9108950E949E0208950E949802C7
S11304D008956A3F7105C1F06B3F710524F46D37CF
S11304E07105D9F416C083E0683E780741F08FE0C7
S11304F0603A780791F48CB58C7F8CBD08958CB5E7
S11305008C7F81608CBD08958CB58C7F82608CBD9E
S113051008958CB583608CBD08958CB58C7F8CBD9B
S1130520089527E024B920E52CBD0E9469020895AE
S11305306EBD0DB407FEFDCF8EB508958FEF8EBD51
S11305400DB407FEFDCF8EB508950F931F93DC0104
S1130550CB01522F8C019D010E561040204030409B
S1130560033961EC160761E0260760E03607D8F529
S11305704530C8F14930B8F520E22093C00028E1A5
S11305802093C1004550440F4093C200553431F4C8
S1130590E2ECF0E020812062208307C05F3429F47C
S11305A0E2ECF0E0208120632083880F991FAA1FCA
S11305B0BB1F880F991FAA1FBB1F9C01AD01220FEF
S11305C0331F441F551F220F331F441F551F60E064
S11305D074E284EF90E00E9437032150304020936E
S11305E0C4003093C5001F910F9108958091C000FD
S11305F080780895E0ECF0E080818823ECF7809126
S1130600C6000895E0ECF0E0908195FFFDCF809363
S1130610C6000895CF93DF93EC018881882331F0DD
S113062021960E94020389918823D9F7DF91CF9103
S11306300895CF93DF93CDB7DEB727970FB6F8941D
S1130640DEBF0FBECDBFBE016F5F7F4F4AE050E0FB
S11306500E945903CE0101960E940A0327960FB601
S1130660F894DEBF0FBECDBFDF91CF910895A1E214
S11306701A2EAA1BBB1BFD010DC0AA1FBB1FEE1F18
S1130680FF1FA217B307E407F50720F0A21BB30B63
S1130690E40BF50B661F771F881F991F1A9469F7DF
S11306A060957095809590959B01AC01BD01CF013B
S11306B00895FB019F01E8944230C4F04532B4F43C
S11306C04A3029F497FB1EF4909581959F4F642F2F
S11306D077270E948A03805D8A330CF0895D8193B9
S11306E0CB010097A1F716F45DE251931082C90182
S11306F00C947A03DC01FC01672F71917723E1F7F5
S1130700329704C07C916D9370836291AE17BF07DA
S1130710C8F30895AA1BBB1B51E107C0AA1FBB1F46
S1130720A617B70710F0A61BB70B881F991F5A9579
S1130730A9F780959095BC01CD010895F894FFCF59
S9030000FC
